:100000000C9463000C948B000C948B000C948B006C
:100010000C948B000C948B000C948B000C940F04AC
:100020000C948B000C948B000C948B000C948B0024
:100030000C948B000C948B000C948B000C948B0014
:100040000C94C3040C948B000C9491040C946B04DA
:100050000C948B000C948B000C948B000C948B00F4
:100060000C948B000C948B000000000024002700EF
:100070002A000200000000230026002900000000E2
:1000800000250028002B00040404040404040402D6
:100090000202020202030303030303010204081025
:1000A00020408001020408102001020408102000F2
:1000B0000000080002010000030407000000000027
:1000C000000000000D0511241FBECFEFD8E0DEBFF9
:1000D000CDBF12E0A0E0B1E0ECEEF4E102C005908B
:1000E0000D92AA30B107D9F722E0AAE0B2E001C030
:1000F0001D92AF3CB207E1F710E0C3E6D0E004C0C8
:100100002197FE010E946E0AC236D107C9F70E94EC
:100110003C050C94740A0C940000AF92BF92CF92ED
:10012000DF92EF92FF920F931F93CF93DF936C01B7
:100130007B018B01040F151FEB015E01AE18BF0898
:10014000C017D10759F06991D601ED91FC9101904A
:10015000F081E02DC6010995892B79F7C501DF9162
:10016000CF911F910F91FF90EF90DF90CF90BF90B4
:10017000AF900895FC01538D448D252F30E0842FDE
:1001800090E0821B930B541710F0CF9608950197BF
:100190000895FC01918D828D981761F0A28DAE0FAC
:1001A000BF2FB11D5D968C91928D9F5F9F73928F33
:1001B00090E008958FEF9FEF0895FC01918D828D5F
:1001C000981731F0828DE80FF11D858D90E008952C
:1001D0008FEF9FEF0895FC01918D228D892F90E084
:1001E000805C9F4F821B91098F739927089584E249
:1001F00092E00E94EB0021E0892B09F420E0822F9D
:10020000089580E090E0892B29F00E94F700811189
:100210000C9400000895FC01A48DA80FB92FB11D06
:10022000A35ABF4F2C91848D90E001968F7399272C
:10023000848FA689B7892C93A089B1898C9183700A
:1002400080648C93938D848D981306C00288F38903
:10025000E02D80818F7D80830895EF92FF920F9330
:100260001F93CF93DF93EC0181E0888F9B8D8C8D62
:1002700098131AC0E889F989808185FF15C09FB756
:10028000F894EE89FF896083E889F9898081837019
:10029000806480839FBF81E090E0DF91CF911F91C8
:1002A0000F91FF90EF900895F62E0B8D10E00F5FE9
:1002B0001F4F0F731127E02E8C8D8E110CC00FB6BF
:1002C00007FCFACFE889F989808185FFF5CFCE0157
:1002D0000E940B01F1CFEB8DEC0FFD2FF11DE35AC6
:1002E000FF4FF0829FB7F8940B8FEA89FB898081DA
:1002F0008062CFCFCF93DF93EC01888D8823B9F054
:10030000AA89BB89E889F9898C9185FD03C0808120
:1003100086FD0DC00FB607FCF7CF8C9185FFF2CF9D
:10032000808185FFEDCFCE010E940B01E9CFDF91E7
:10033000CF910895833081F028F4813099F0823094
:10034000A9F008958730A9F08830C9F08430B1F45D
:10035000809180008F7D03C0809180008F77809393
:100360008000089584B58F7784BD089584B58F7D0E
:10037000FBCF8091B0008F778093B000089580917B
:10038000B0008F7DF9CFCF93DF93282F30E0F901B4
:10039000E155FF4F8491F901E556FF4FD491F901E2
:1003A000E957FF4FC491CC2391F081110E949A012B
:1003B000EC2FF0E0EE0FFF1FE358FF4FA591B49133
:1003C0008FB7F894EC91D095DE23DC938FBFDF914B
:1003D000CF9108959091000189130BC0E2E7F0E0FE
:1003E000E4919FEF90930001E13041F020F0E23082
:1003F00059F00C94C30110926E00FBCF90916F00E6
:100400009D7F90936F00F5CF909170009D7F9093AA
:10041000700091E09093B0009091B100987F94604B
:100420009093B1001092B300E4CFCF93DF93E2EB4F
:10043000F0E08491EEE9F0E0D491EAE8F0E0C491D4
:10044000CC23A1F081110E949A01EC2FF0E0EE0F75
:10045000FF1FED58FF4FA591B491EC91ED2381E082
:1004600090E009F480E0DF91CF91089580E090E082
:10047000FACFCF93DF9390E0FC01E556FF4F249134
:1004800089579F4FFC0184918823D1F090E0880F19
:10049000991FFC01E859FF4FA591B491FC01E35865
:1004A000FF4FC591D49161110EC09FB7F8948C9104
:1004B000E22FE0958E238C932881E223E8839FBF6F
:1004C000DF91CF9108958FB7F894EC91E22BEC93E4
:1004D0008FBFF6CF8E50806480937C0080917A002D
:1004E000806480937A0080917A0086FDFCCF8091B1
:1004F00078009091790008953FB7F89480910F02A9
:1005000090911002A0911102B091120226B5A89B01
:1005100005C02F3F19F00196A11DB11D3FBFBA2F95
:10052000A92F982F8827BC01CD01620F711D811D55
:10053000911D42E0660F771F881F991F4A95D1F7DA
:1005400008958F929F92AF92BF92CF92DF92EF92D7
:10055000FF926B017C010E947C024B015C01C11483
:10056000D104E104F104B9F00E947C026819790910
:100570008A099B09683E73408105910580F321E05B
:10058000C21AD108E108F10888EE880E83E0981EAF
:10059000A11CB11CE4CFFF90EF90DF90CF90BF90F3
:1005A000AF909F908F900895FC0101900020E9F793
:1005B0003197AF01481B590BBC0184E292E00C94C7
:1005C0008D008F929F92AF92BF920F931F93CF9304
:1005D000DF93CDB7DEB7A1970FB6F894DEBF0FBE9D
:1005E000CDBF19A2423008F44AE08E010F5D1F4FC3
:1005F000842E912CB12CA12CA50194010E940908F4
:10060000E62FB901CA01EA30F4F4E05DD801EE93B7
:100610008D01232B242B252B79F790E080E0109778
:1006200019F0CD010E94D402A1960FB6F894DEBF56
:100630000FBECDBFDF91CF911F910F91BF90AF90B3
:100640009F908F900895E95CE1CFCF93DF930E9454
:10065000D402EC0183E191E00E94D4028C0F9D1F33
:10066000DF91CF9108954F925F926F927F928F9218
:100670009F92AF92BF92CF92DF92EF92FF920F9331
:100680001F93CF936B017C01742EAC019B010E94E0
:10069000690A882399F086E191E0CF911F910F912B
:1006A000FF90EF90DF90CF90BF90AF909F908F9092
:1006B0007F906F905F904F900C94D4024601570149
:1006C000E894B7F82FEF3FEF4FE75FE7C501B401BC
:1006D0000E94690A81110DC02FEF3FEF4FE75FE7DE
:1006E000C501B4010E94980818161CF48AE191E033
:1006F000D4CF2FEF3FEF4FE75FE4C701B6010E9471
:10070000F70918161CF48EE191E0C7CF2FEF3FEFE9
:100710004FE75FECC701B6010E94980887FDF3CF51
:1007200020E030E0A901C701B6010E94980810E05E
:1007300000E087FF0AC06DE284E292E00E942D0192
:100740008C01F7FAF094F7F8F094C0E060E070E004
:1007500080E09FE37C1641F020E030E040E251E48D
:100760000E949D08CF5FF6CFA70196010E942C083A
:100770002B013C010E9416094B015C014AE00E94DA
:10078000E1027C01E00EF11ECC23C1F1C501B401F0
:100790000E9445099B01AC01C301B2010E942B08D4
:1007A0004B015C016EE284E292E00E942D01E80EB2
:1007B000F91EC15018F120E030E040E251E4C501DB
:1007C000B4010E94FC092B013C010E9416094B0157
:1007D000B12CA12C4AE0C501B4010E94E102E80E4F
:1007E000F91EC501B4010E9445099B01AC01C3017A
:1007F000B2010E942B084B015C01DBCFC701CF91F6
:100800001F910F91FF90EF90DF90CF90BF90AF902E
:100810009F908F907F906F905F904F9008951F9260
:100820000F920FB60F9211242F933F934F935F9324
:100830006F937F938F939F93AF93BF93EF93FF93A8
:100840008091180290911902A0911A02B0911B0296
:10085000892B8A2B8B2BD1F190911302E0911402FA
:10086000F0911502808189278083809118029091F0
:100870001902A0911A02B0911B02181619061A0645
:100880001B069CF48091180290911902A0911A0203
:10089000B0911B020197A109B109809318029093AE
:1008A0001902A0931A02B0931B02FF91EF91BF911E
:1008B000AF919F918F917F916F915F914F913F91F8
:1008C0002F910F900FBE0F901F90189580910001EF
:1008D0000E94EA01EACF1F920F920FB60F921124E5
:1008E0002F933F934F935F936F937F938F939F9338
:1008F000AF93BF93EF93FF9384E292E00E940B01CA
:10090000FF91EF91BF91AF919F918F917F916F91E7
:100910005F914F913F912F910F900FBE0F901F90BD
:1009200018951F920F920FB60F9211242F938F9349
:100930009F93EF93FF93E0913402F0913502808111
:10094000E0913A02F0913B0282FD1BC090818091C0
:100950003D028F5F8F7320913E02821741F0E0913C
:100960003D02F0E0EC5DFD4F958F80933D02FF91DD
:10097000EF919F918F912F910F900FBE0F901F902D
:1009800018958081F4CF1F920F920FB60F92112409
:100990002F933F938F939F93AF93BF9380910B02BD
:1009A00090910C02A0910D02B0910E0230910A02BA
:1009B00023E0230F2D3758F50196A11DB11D20937B
:1009C0000A0280930B0290930C02A0930D02B09345
:1009D0000E0280910F0290911002A0911102B0912D
:1009E00012020196A11DB11D80930F029093100277
:1009F000A0931102B0931202BF91AF919F918F917A
:100A00003F912F910F900FBE0F901F90189526E8E1
:100A1000230F0296A11DB11DD2CFE4E2F2E01382B2
:100A2000128288EE93E0A0E0B0E084839583A683F1
:100A3000B78385E091E09183808385EC90E0958792
:100A4000848784EC90E09787868780EC90E0918B98
:100A5000808B81EC90E0938B828B82EC90E0958B85
:100A6000848B86EC90E0978B868B118E128E138E82
:100A7000148E1092CE020895789484B5826084BD5D
:100A800084B5816084BD85B5826085BD85B5816092
:100A900085BD80916E00816080936E001092810010
:100AA00080918100826080938100809181008160CB
:100AB000809381008091800081608093800080918C
:100AC000B10084608093B1008091B0008160809318
:100AD000B00080917A00846080937A0080917A00DF
:100AE000826080937A0080917A00816080937A009E
:100AF00080917A00806880937A001092C100E09122
:100B00003402F091350282E08083E0913002F0916E
:100B100031021082E0913202F09133028FEC808337
:100B200010923C02E0913802F091390286E0808315
:100B3000E0913602F0913702808180618083E091FC
:100B40003602F0913702808188608083E09136021E
:100B5000F0913702808180688083E0913602F091C5
:100B6000370280818F7D808361E089E00E943902B5
:100B700060E9262E60E0362ECC24CA94DC2C760167
:100B800054EA852E50E0952E82E291E00E942503E2
:100B90008FE00E946A02EC0182E491E00E94D4029C
:100BA000BE01DD0F880B990B0E94470920E030E061
:100BB00040E85AE30E94FC0920E030E04AEF53E4A9
:100BC0000E94FC090E940F092B01770F6608770825
:100BD0004AE0C301B20177FE0DC06DE284E292E00B
:100BE0000E942D0166277727CB01641975098609B4
:100BF00097094AE00E94E1028CE591E00E942503FA
:100C00008091CE02882309F0F8941092C9021092C4
:100C1000CA021092CB021092CC021092CD0261E077
:100C200083E00E94390283E00E94C30162E170E028
:100C300080E090E00E94A10260E083E00E9439021F
:100C40008BE990E00197F1F7C0E9D1E00E9415022D
:100C5000892B09F07BC02197C9F78EEF9FEF209178
:100C6000CE02222309F07894892B09F4B4C080E0E5
:100C700090ECA9E7B4EC8093C1029093C202A093D8
:100C8000C302B093C4028093C5029093C602A0939E
:100C9000C702B093C80285E691E00E94D402609139
:100CA000C1027091C2028091C3029091C40242E0DD
:100CB0000E94330381E791E00E94250388E791E0D9
:100CC0000E94D4026091C5027091C6028091C70251
:100CD0009091C80241E00E9433038CE591E00E94AC
:100CE00025038EE00E946A02853F91400CF08CC182
:100CF00087E891E00E94250380910001893009F086
:100D0000B9C0E2E7F0E0C491C7FD52C161E089E0FB
:100D10000E943902CC2309F41CC1C23009F02DC154
:100D20008091B10087608093B1008BE98093B3001C
:100D3000C0921802D0921902E0921A02F0921B029D
:100D40008091700082608093700032C1C0E9D1E070
:100D50000E941502019719F42197D1F77ECFD8E2AE
:100D6000C0E810E040E9A42EBB24B3940E94150211
:100D7000892B29F421E0A21AB108C1F76ECF0E9495
:100D80007C022B013C0130E9A32EBB24B3940E94CA
:100D90001502019729F481E0A81AB108C1F75DCFC7
:100DA0000E947C02641975098609970969327105E8
:100DB0008105910538F0E12FF0E0EF53FD4F80857C
:100DC0008C2B8087C69511F41F5FC0E8D15051F677
:100DD00090E080E044CF6091CA0270E090E080E053
:100DE0000E9447092DEC3CEC4CEC5DE30E94FC09B1
:100DF0002B013C016091C90270E090E080E00E940C
:100E000047099B01AC01C301B2010E942C08609309
:100E1000C1027093C2028093C3029093C402C09136
:100E2000CB026091CC0270E090E080E00E94470924
:100E30002DEC3CEC4CEC5DE30E94FC092B013C01E9
:100E40006C2F6F7770E090E080E00E9447099B0173
:100E5000AC01C301B2010E942C08C7FD09C0609318
:100E6000C5027093C6028093C7029093C80213CF45
:100E70009058F5CF8F3F09F09BC089E08093000127
:100E8000E2E7F0E0C491CF3F09F492C0C13019F11C
:100E900050F0C23009F43CC0C7FD8AC061E089E06F
:100EA0000E9439023ACF14BC15BC84B5826084BD5F
:100EB00085B5816085BDF1018491E82FF0E0EE0FEA
:100EC000FF1FE358FF4F85919491F4018491809323
:100ED0001702C0E01BCF1092800010928100809119
:100EE000810088608093810080918100816080937F
:100EF0008100F1018491E82FF0E0EE0FFF1FE3582D
:100F0000FF4F85919491F401849180931602FECE57
:100F10001092B0001092B1008091B0008260809376
:100F2000B0008091B10081608093B100F1018491A3
:100F3000E82FF0E0EE0FFF1FE358FF4F85919491EB
:100F40009093150280931402F4018491809313020C
:100F5000DDCE85B5887F856085BD8BE987BDC09274
:100F60002002D0922102E0922202F092230280918C
:100F70006E00826080936E001BC0C130E9F58091E5
:100F80008100887F83608093810083EC99E0909357
:100F9000890080938800C0921C02D0921D02E092CA
:100FA0001E02F0921F0280916F00826080936F009A
:100FB00064EF71E080E090E00E94A10289E00E946D
:100FC000EA0183EC91E00E94250386EE91E00E9405
:100FD000250360E777E180E090E00E94A102A0E0B5
:100FE000B0E0AB2B09F4D0CD0E94F700882309F4C0
:100FF000C7CD0E940000C4CDC23021F0C111D8CFAE
:1010000083ECACCF83EC92CE83EA91E00E9425037F
:10101000D8CFA1E21A2EAA1BBB1BFD010DC0AA1F2F
:10102000BB1FEE1FFF1FA217B307E407F50720F051
:10103000A21BB30BE40BF50B661F771F881F991FCC
:101040001A9469F760957095809590959B01AC0115
:10105000BD01CF0108955058BB27AA270E9443081D
:101060000C94BD090E94AF0938F00E94B60920F027
:1010700039F49F3F19F426F40C94AC090EF4E09572
:10108000E7FB0C94A609E92F0E94CE0958F3BA1782
:10109000620773078407950720F079F4A6F50C948E
:1010A000F0090EF4E0950B2EBA2FA02D0B01B9011B
:1010B00090010C01CA01A0011124FF27591B99F0CE
:1010C000593F50F4503E68F11A16F040A22F232FDA
:1010D000342F4427585FF3CF469537952795A7952A
:1010E000F0405395C9F77EF41F16BA0B620B730BD1
:1010F000840BBAF09150A1F0FF0FBB1F661F771F42
:10110000881FC2F70EC0BA0F621F731F841F48F4F6
:10111000879577956795B795F7959E3F08F0B0CF7F
:101120009395880F08F09927EE0F97958795089566
:101130000E94820908F481E008950E94B1080C948D
:10114000BD090E94B60958F00E94AF0940F029F489
:101150005F3F29F00C94A60951110C94F1090C94ED
:10116000AC090E94CE0968F39923B1F3552391F39A
:10117000951B550BBB27AA2762177307840738F006
:101180009F5F5F4F220F331F441FAA1FA9F335D063
:101190000E2E3AF0E0E832D091505040E695001C17
:1011A000CAF72BD0FE2F29D0660F771F881FBB1FD1
:1011B000261737074807AB07B0E809F0BB0B802DAF
:1011C000BF01FF2793585F4F3AF09E3F510578F0DB
:1011D0000C94A6090C94F1095F3FE4F3983ED4F314
:1011E000869577956795B795F7959F5FC9F7880FAF
:1011F000911D9695879597F90895E1E0660F771F01
:10120000881FBB1F621773078407BA0720F0621B91
:10121000730B840BBA0BEE1F88F7E09508950E94BC
:1012200016096894B1110C94F10908950E94D60929
:1012300088F09F5798F0B92F9927B751B0F0E1F097
:10124000660F771F881F991F1AF0BA95C9F714C047
:10125000B13091F00E94F009B1E008950C94F009CA
:10126000672F782F8827B85F39F0B93FCCF3869580
:1012700077956795B395D9F73EF4909580957095DD
:1012800061957F4F8F4F9F4F0895E89409C097FB5A
:101290003EF490958095709561957F4F8F4F9F4F4D
:1012A0009923A9F0F92F96E9BB279395F695879591
:1012B00077956795B795F111F8CFFAF4BB0F11F454
:1012C00060FF1BC06F5F7F4F8F4F9F4F16C08823FB
:1012D00011F096E911C0772321F09EE8872F762F31
:1012E00005C0662371F096E8862F70E060E02AF072
:1012F0009A95660F771F881FDAF7880F969587955E
:1013000097F90895990F0008550FAA0BE0E8FEEF32
:1013100016161706E807F907C0F012161306E407B9
:10132000F50798F0621B730B840B950B39F40A26B2
:1013300061F0232B242B252B21F408950A2609F490
:10134000A140A6958FEF811D811D089597F99F6794
:1013500080E870E060E008959FEF80EC089500243D
:101360000A941616170618060906089500240A940A
:1013700012161306140605060895092E0394000C90
:1013800011F4882352F0BB0F40F4BF2B11F460FF1F
:1013900004C06F5F7F4F8F4F9F4F089557FD905848
:1013A000440F551F59F05F3F71F04795880F97FB29
:1013B000991F61F09F3F79F08795089512161306E3
:1013C0001406551FF2CF4695F1DF08C01616170612
:1013D0001806991FF1CF8695710561050894089547
:1013E000E894BB2766277727CB0197F908950E94D9
:1013F000820908F48FEF08950E940F0A0C94BD092A
:101400000E94AF0938F00E94B60920F0952311F030
:101410000C94A6090C94AC0911240C94F1090E94B7
:10142000CE0970F3959FC1F3950F50E0551F629F51
:10143000F001729FBB27F00DB11D639FAA27F00D2D
:10144000B11DAA1F649F6627B00DA11D661F829F54
:101450002227B00DA11D621F739FB00DA11D621F39
:10146000839FA00D611D221F749F3327A00D611D56
:10147000231F849F600D211D822F762F6A2F112438
:101480009F5750409AF0F1F088234AF0EE0FFF1F6B
:10149000BB1F661F771F881F91505040A9F79E3FC2
:1014A000510580F00C94A6090C94F1095F3FE4F318
:1014B000983ED4F3869577956795B795F795E79518
:1014C0009F5FC1F7FE2B880F911D9695879597F921
:1014D00008950E948209880B990B0895EE0FFF1F53
:0C14E0000590F491E02D0994F894FFCFE2
:1014EC00FF000000002D018D00BA007A01EB00C94D
:1014FC0000DD000D0A006E616E00696E66006F768D
:10150C0066002D2D2D2D20477265656E686F7573E5
:10151C0065204D6F6E69746F72696E672D2D2D2D60
:10152C002D0054656D7065726174757265207573EC
:10153C00696E67204C4D3335203A20002064656776
:10154C00726565730048756D6964697479203D2016
:10155C000020672F6D5E330054656D706572617489
:10156C00757265203D20006C6967687420696E7423
:10157C00656E736974792069732065786365656439
:10158C006564006C6967687420696E74656E736954
:10159C007479206973206E6F742065786365656457
:1015AC006564002D2D2D2D2D2D2D2D2D2D2D2D2D1D
:1015BC002D2D2D2D2D2D2D2D2D2D2D2D2D2D2D2D4F
:1015CC002D2D2D2D2D002D2D2D2D2D2D2D2D2D2D6C
:1015DC002D2D2D2D2D2D2D2D2D2D2D2D2D2D2D2D2F
:0A15EC002D2D2D2D2D2D2D2D0A0083
:00000001FF
